{
  "_format": "hh-sol-artifact-1",
  "contractName": "Voting_Systen",
  "sourceName": "contracts/Voting_Systen.sol",
  "abi": [
    {
      "inputs": [
        {
          "internalType": "string[]",
          "name": "tituloPropuesta",
          "type": "string[]"
        },
        {
          "internalType": "address[]",
          "name": "votanteAddress",
          "type": "address[]"
        }
      ],
      "stateMutability": "nonpayable",
      "type": "constructor"
    },
    {
      "anonymous": false,
      "inputs": [
        {
          "indexed": true,
          "internalType": "address",
          "name": "votante",
          "type": "address"
        },
        {
          "indexed": true,
          "internalType": "address",
          "name": "delegate",
          "type": "address"
        }
      ],
      "name": "DelegateSuccesse",
      "type": "event"
    },
    {
      "anonymous": false,
      "inputs": [
        {
          "indexed": true,
          "internalType": "address",
          "name": "previousOwner",
          "type": "address"
        },
        {
          "indexed": true,
          "internalType": "address",
          "name": "newOwner",
          "type": "address"
        }
      ],
      "name": "OwnershipTransferred",
      "type": "event"
    },
    {
      "anonymous": false,
      "inputs": [
        {
          "indexed": true,
          "internalType": "address",
          "name": "_owner",
          "type": "address"
        },
        {
          "indexed": false,
          "internalType": "uint256",
          "name": "_conteoPropuestas",
          "type": "uint256"
        }
      ],
      "name": "VotingStarted",
      "type": "event"
    },
    {
      "anonymous": false,
      "inputs": [
        {
          "indexed": false,
          "internalType": "uint256",
          "name": "_propuestaVotada",
          "type": "uint256"
        },
        {
          "indexed": true,
          "internalType": "address",
          "name": "_votante",
          "type": "address"
        }
      ],
      "name": "VotoCasted",
      "type": "event"
    },
    {
      "inputs": [
        {
          "internalType": "address",
          "name": "_to",
          "type": "address"
        }
      ],
      "name": "DelegarVoto",
      "outputs": [
        {
          "internalType": "bool",
          "name": "",
          "type": "bool"
        }
      ],
      "stateMutability": "nonpayable",
      "type": "function"
    },
    {
      "inputs": [],
      "name": "Ganador",
      "outputs": [],
      "stateMutability": "nonpayable",
      "type": "function"
    },
    {
      "inputs": [],
      "name": "GetPropuestasGanadores",
      "outputs": [
        {
          "internalType": "uint256[]",
          "name": "",
          "type": "uint256[]"
        }
      ],
      "stateMutability": "view",
      "type": "function"
    },
    {
      "inputs": [
        {
          "internalType": "uint256",
          "name": "_propuestaIndex",
          "type": "uint256"
        }
      ],
      "name": "getPropuesta",
      "outputs": [
        {
          "internalType": "string",
          "name": "_tituloPropuesta",
          "type": "string"
        },
        {
          "internalType": "uint256",
          "name": "_conteoVotos",
          "type": "uint256"
        }
      ],
      "stateMutability": "view",
      "type": "function"
    },
    {
      "inputs": [],
      "name": "getnombreGanador",
      "outputs": [
        {
          "internalType": "string[]",
          "name": "_nombreGanadores",
          "type": "string[]"
        }
      ],
      "stateMutability": "view",
      "type": "function"
    },
    {
      "inputs": [],
      "name": "owner",
      "outputs": [
        {
          "internalType": "address",
          "name": "",
          "type": "address"
        }
      ],
      "stateMutability": "view",
      "type": "function"
    },
    {
      "inputs": [],
      "name": "renounceOwnership",
      "outputs": [],
      "stateMutability": "nonpayable",
      "type": "function"
    },
    {
      "inputs": [
        {
          "internalType": "address",
          "name": "newOwner",
          "type": "address"
        }
      ],
      "name": "transferOwnership",
      "outputs": [],
      "stateMutability": "nonpayable",
      "type": "function"
    },
    {
      "inputs": [
        {
          "internalType": "address",
          "name": "",
          "type": "address"
        }
      ],
      "name": "votantes",
      "outputs": [
        {
          "internalType": "address",
          "name": "votante",
          "type": "address"
        },
        {
          "internalType": "address",
          "name": "delegate",
          "type": "address"
        },
        {
          "internalType": "uint256",
          "name": "voto",
          "type": "uint256"
        },
        {
          "internalType": "bool",
          "name": "voted",
          "type": "bool"
        }
      ],
      "stateMutability": "view",
      "type": "function"
    },
    {
      "inputs": [
        {
          "internalType": "address",
          "name": "_votante",
          "type": "address"
        },
        {
          "internalType": "uint256",
          "name": "_propuestaIndex",
          "type": "uint256"
        }
      ],
      "name": "votar",
      "outputs": [
        {
          "internalType": "bool",
          "name": "",
          "type": "bool"
        }
      ],
      "stateMutability": "nonpayable",
      "type": "function"
    }
  ],
  "bytecode": "0x60806040523480156200001157600080fd5b50604051620021b0380380620021b0833981810160405281019062000037919062000844565b620000576200004b6200033760201b60201c565b6200033f60201b60201c565b815160038190555060005b600354811015620001155760006040518060400160405280620000a8868581518110620000945762000093620008c9565b5b60200260200101516200040360201b60201c565b815260200160008152509050600281908060018154018082558091505060019003906000526020600020906002020160009091909190915060008201518160000155602082015181600101555050506200010d6001826200043960201b90919060201c565b905062000062565b5060005b81518110156200032e5760006040518060800160405280848481518110620001465762000145620008c9565b5b602002602001015173ffffffffffffffffffffffffffffffffffffffff168152602001600073ffffffffffffffffffffffffffffffffffffffff168152602001600081526020016000151581525090508060016000858581518110620001b157620001b0620008c9565b5b602002602001015173ffffffffffffffffffffffffffffffffffffffff1673ffffffffffffffffffffffffffffffffffffffff16815260200190815260200160002060008201518160000160006101000a81548173ffffffffffffffffffffffffffffffffffffffff021916908373ffffffffffffffffffffffffffffffffffffffff16021790555060208201518160010160006101000a81548173ffffffffffffffffffffffffffffffffffffffff021916908373ffffffffffffffffffffffffffffffffffffffff1602179055506040820151816002015560608201518160030160006101000a81548160ff021916908315150217905550905050620002be6200045160201b60201c565b73ffffffffffffffffffffffffffffffffffffffff167ff318b16025413645144ed83c64d2d30f089c10bc263cab68a036c00f011827be60035460405162000307919062000913565b60405180910390a250620003266001826200043960201b90919060201c565b905062000119565b50505062000ab9565b600033905090565b60008060009054906101000a900473ffffffffffffffffffffffffffffffffffffffff169050816000806101000a81548173ffffffffffffffffffffffffffffffffffffffff021916908373ffffffffffffffffffffffffffffffffffffffff1602179055508173ffffffffffffffffffffffffffffffffffffffff168173ffffffffffffffffffffffffffffffffffffffff167f8be0079c531659141344cd1fd0a4f28419497f9722a3daafe3b4186f6b6457e060405160405180910390a35050565b6000816040516020016200041891906200097d565b6040516020818303038152906040526200043290620009df565b9050919050565b6000818362000449919062000a7e565b905092915050565b60008060009054906101000a900473ffffffffffffffffffffffffffffffffffffffff16905090565b6000604051905090565b600080fd5b600080fd5b600080fd5b6000601f19601f8301169050919050565b7f4e487b7100000000000000000000000000000000000000000000000000000000600052604160045260246000fd5b620004de8262000493565b810181811067ffffffffffffffff821117156200050057620004ff620004a4565b5b80604052505050565b6000620005156200047a565b9050620005238282620004d3565b919050565b600067ffffffffffffffff821115620005465762000545620004a4565b5b602082029050602081019050919050565b600080fd5b600080fd5b600067ffffffffffffffff8211156200057f576200057e620004a4565b5b6200058a8262000493565b9050602081019050919050565b60005b83811015620005b75780820151818401526020810190506200059a565b60008484015250505050565b6000620005da620005d48462000561565b62000509565b905082815260208101848484011115620005f957620005f86200055c565b5b6200060684828562000597565b509392505050565b600082601f8301126200062657620006256200048e565b5b815162000638848260208601620005c3565b91505092915050565b600062000658620006528462000528565b62000509565b905080838252602082019050602084028301858111156200067e576200067d62000557565b5b835b81811015620006cc57805167ffffffffffffffff811115620006a757620006a66200048e565b5b808601620006b689826200060e565b8552602085019450505060208101905062000680565b5050509392505050565b600082601f830112620006ee57620006ed6200048e565b5b81516200070084826020860162000641565b91505092915050565b600067ffffffffffffffff821115620007275762000726620004a4565b5b602082029050602081019050919050565b600073ffffffffffffffffffffffffffffffffffffffff82169050919050565b6000620007658262000738565b9050919050565b620007778162000758565b81146200078357600080fd5b50565b60008151905062000797816200076c565b92915050565b6000620007b4620007ae8462000709565b62000509565b90508083825260208201905060208402830185811115620007da57620007d962000557565b5b835b81811015620008075780620007f2888262000786565b845260208401935050602081019050620007dc565b5050509392505050565b600082601f8301126200082957620008286200048e565b5b81516200083b8482602086016200079d565b91505092915050565b600080604083850312156200085e576200085d62000484565b5b600083015167ffffffffffffffff8111156200087f576200087e62000489565b5b6200088d85828601620006d6565b925050602083015167ffffffffffffffff811115620008b157620008b062000489565b5b620008bf8582860162000811565b9150509250929050565b7f4e487b7100000000000000000000000000000000000000000000000000000000600052603260045260246000fd5b6000819050919050565b6200090d81620008f8565b82525050565b60006020820190506200092a600083018462000902565b92915050565b600081519050919050565b600081905092915050565b6000620009538262000930565b6200095f81856200093b565b93506200097181856020860162000597565b80840191505092915050565b60006200098b828462000946565b915081905092915050565b600081519050919050565b6000819050602082019050919050565b6000819050919050565b6000620009c98251620009b1565b80915050919050565b600082821b905092915050565b6000620009ec8262000996565b82620009f884620009a1565b905062000a0581620009bb565b9250602082101562000a485762000a437fffffffffffffffffffffffffffffffffffffffffffffffffffffffffffffffff83602003600802620009d2565b831692505b5050919050565b7f4e487b7100000000000000000000000000000000000000000000000000000000600052601160045260246000fd5b600062000a8b82620008f8565b915062000a9883620008f8565b925082820190508082111562000ab35762000ab262000a4f565b5b92915050565b6116e78062000ac96000396000f3fe608060405234801561001057600080fd5b506004361061009e5760003560e01c8063835c432911610066578063835c4329146101365780638da5cb5b14610166578063a92284d014610184578063ef31e834146101b7578063f2fde38b146101d55761009e565b806309c4acc0146100a357806348843482146100d45780635255f6ac1461010457806355911cc114610122578063715018a61461012c575b600080fd5b6100bd60048036038101906100b89190610d92565b6101f1565b6040516100cb929190610e5e565b60405180910390f35b6100ee60048036038101906100e99190610eec565b61029c565b6040516100fb9190610f34565b60405180910390f35b61010c61051b565b604051610119919061100d565b60405180910390f35b61012a610573565b005b6101346106f2565b005b610150600480360381019061014b919061102f565b610706565b60405161015d9190610f34565b60405180910390f35b61016e6109cc565b60405161017b919061107e565b60405180910390f35b61019e60048036038101906101999190610eec565b6109f5565b6040516101ae9493929190611099565b60405180910390f35b6101bf610a72565b6040516101cc91906111ea565b60405180910390f35b6101ef60048036038101906101ea9190610eec565b610b0d565b005b6060600082600354811061023a576040517f08c379a00000000000000000000000000000000000000000000000000000000081526004016102319061127e565b60405180910390fd5b610268600285815481106102515761025061129e565b5b906000526020600020906002020160000154610b90565b6002858154811061027c5761027b61129e565b5b906000526020600020906002020160010154809350819450505050915091565b600033600160008273ffffffffffffffffffffffffffffffffffffffff1673ffffffffffffffffffffffffffffffffffffffff16815260200190815260200160002060030160009054906101000a900460ff161561032f576040517f08c379a00000000000000000000000000000000000000000000000000000000081526004016103269061133f565b60405180910390fd5b3373ffffffffffffffffffffffffffffffffffffffff168373ffffffffffffffffffffffffffffffffffffffff160361039d576040517f08c379a0000000000000000000000000000000000000000000000000000000008152600401610394906113ab565b60405180910390fd5b6000600160003373ffffffffffffffffffffffffffffffffffffffff1673ffffffffffffffffffffffffffffffffffffffff1681526020019081526020016000209050600073ffffffffffffffffffffffffffffffffffffffff168160000160009054906101000a900473ffffffffffffffffffffffffffffffffffffffff1673ffffffffffffffffffffffffffffffffffffffff1603610473576040517f08c379a000000000000000000000000000000000000000000000000000000000815260040161046a9061143d565b60405180910390fd5b838160010160006101000a81548173ffffffffffffffffffffffffffffffffffffffff021916908373ffffffffffffffffffffffffffffffffffffffff1602179055508373ffffffffffffffffffffffffffffffffffffffff163373ffffffffffffffffffffffffffffffffffffffff167ffb7be92547470f61a8f26fee76eb2c823502b7a89987ee154b9a17f039435ffe60405160405180910390a3600192505050919050565b6060600480548060200260200160405190810160405280929190818152602001828054801561056957602002820191906000526020600020905b815481526020019060010190808311610555575b5050505050905090565b61057b610bb9565b600460006105899190610d19565b60008060005b6002805490508110156106105782600282815481106105b1576105b061129e565b5b90600052602060002090600202016001015411156105f557600281815481106105dd576105dc61129e565b5b90600052602060002090600202016001015492508091505b610609600182610c3790919063ffffffff16565b905061058f565b50600481908060018154018082558091505060019003906000526020600020016000909190919091505560005b6002805490508110156106ed576002828154811061065e5761065d61129e565b5b906000526020600020906002020160010154600282815481106106845761068361129e565b5b9060005260206000209060020201600101541480156106a35750818114155b156106d25760048190806001815401808255809150506001900390600052602060002001600090919091909150555b6106e6600182610c3790919063ffffffff16565b905061063d565b505050565b6106fa610bb9565b6107046000610c4d565b565b600081600354811061074d576040517f08c379a00000000000000000000000000000000000000000000000000000000081526004016107449061127e565b60405180910390fd5b33600160008273ffffffffffffffffffffffffffffffffffffffff1673ffffffffffffffffffffffffffffffffffffffff16815260200190815260200160002060030160009054906101000a900460ff16156107de576040517f08c379a00000000000000000000000000000000000000000000000000000000081526004016107d59061133f565b60405180910390fd5b6000600160008773ffffffffffffffffffffffffffffffffffffffff1673ffffffffffffffffffffffffffffffffffffffff16815260200190815260200160002090508573ffffffffffffffffffffffffffffffffffffffff163373ffffffffffffffffffffffffffffffffffffffff1614806108aa57508060010160009054906101000a900473ffffffffffffffffffffffffffffffffffffffff1673ffffffffffffffffffffffffffffffffffffffff163373ffffffffffffffffffffffffffffffffffffffff16145b6108e9576040517f08c379a00000000000000000000000000000000000000000000000000000000081526004016108e0906114cf565b60405180910390fd5b84816002018190555061092b60016002878154811061090b5761090a61129e565b5b906000526020600020906002020160010154610c3790919063ffffffff16565b6002868154811061093f5761093e61129e565b5b90600052602060002090600202016001018190555060018160030160006101000a81548160ff0219169083151502179055508573ffffffffffffffffffffffffffffffffffffffff167f7ce8392731d66febaa258f003440aa15d4c5928345a838706530c3e1b9e2b8e1866040516109b791906114ef565b60405180910390a26001935050505092915050565b60008060009054906101000a900473ffffffffffffffffffffffffffffffffffffffff16905090565b60016020528060005260406000206000915090508060000160009054906101000a900473ffffffffffffffffffffffffffffffffffffffff16908060010160009054906101000a900473ffffffffffffffffffffffffffffffffffffffff16908060020154908060030160009054906101000a900460ff16905084565b606060005b600480549050811015610b0957610ad0600260048381548110610a9d57610a9c61129e565b5b906000526020600020015481548110610ab957610ab861129e565b5b906000526020600020906002020160000154610b90565b828281518110610ae357610ae261129e565b5b6020026020010181905250610b02600182610c3790919063ffffffff16565b9050610a77565b5090565b610b15610bb9565b600073ffffffffffffffffffffffffffffffffffffffff168173ffffffffffffffffffffffffffffffffffffffff1603610b84576040517f08c379a0000000000000000000000000000000000000000000000000000000008152600401610b7b9061157c565b60405180910390fd5b610b8d81610c4d565b50565b606081604051602001610ba391906115c7565b6040516020818303038152906040529050919050565b610bc1610d11565b73ffffffffffffffffffffffffffffffffffffffff16610bdf6109cc565b73ffffffffffffffffffffffffffffffffffffffff1614610c35576040517f08c379a0000000000000000000000000000000000000000000000000000000008152600401610c2c9061162e565b60405180910390fd5b565b60008183610c45919061167d565b905092915050565b60008060009054906101000a900473ffffffffffffffffffffffffffffffffffffffff169050816000806101000a81548173ffffffffffffffffffffffffffffffffffffffff021916908373ffffffffffffffffffffffffffffffffffffffff1602179055508173ffffffffffffffffffffffffffffffffffffffff168173ffffffffffffffffffffffffffffffffffffffff167f8be0079c531659141344cd1fd0a4f28419497f9722a3daafe3b4186f6b6457e060405160405180910390a35050565b600033905090565b5080546000825590600052602060002090810190610d379190610d3a565b50565b5b80821115610d53576000816000905550600101610d3b565b5090565b600080fd5b6000819050919050565b610d6f81610d5c565b8114610d7a57600080fd5b50565b600081359050610d8c81610d66565b92915050565b600060208284031215610da857610da7610d57565b5b6000610db684828501610d7d565b91505092915050565b600081519050919050565b600082825260208201905092915050565b60005b83811015610df9578082015181840152602081019050610dde565b60008484015250505050565b6000601f19601f8301169050919050565b6000610e2182610dbf565b610e2b8185610dca565b9350610e3b818560208601610ddb565b610e4481610e05565b840191505092915050565b610e5881610d5c565b82525050565b60006040820190508181036000830152610e788185610e16565b9050610e876020830184610e4f565b9392505050565b600073ffffffffffffffffffffffffffffffffffffffff82169050919050565b6000610eb982610e8e565b9050919050565b610ec981610eae565b8114610ed457600080fd5b50565b600081359050610ee681610ec0565b92915050565b600060208284031215610f0257610f01610d57565b5b6000610f1084828501610ed7565b91505092915050565b60008115159050919050565b610f2e81610f19565b82525050565b6000602082019050610f496000830184610f25565b92915050565b600081519050919050565b600082825260208201905092915050565b6000819050602082019050919050565b610f8481610d5c565b82525050565b6000610f968383610f7b565b60208301905092915050565b6000602082019050919050565b6000610fba82610f4f565b610fc48185610f5a565b9350610fcf83610f6b565b8060005b83811015611000578151610fe78882610f8a565b9750610ff283610fa2565b925050600181019050610fd3565b5085935050505092915050565b600060208201905081810360008301526110278184610faf565b905092915050565b6000806040838503121561104657611045610d57565b5b600061105485828601610ed7565b925050602061106585828601610d7d565b9150509250929050565b61107881610eae565b82525050565b6000602082019050611093600083018461106f565b92915050565b60006080820190506110ae600083018761106f565b6110bb602083018661106f565b6110c86040830185610e4f565b6110d56060830184610f25565b95945050505050565b600081519050919050565b600082825260208201905092915050565b6000819050602082019050919050565b600082825260208201905092915050565b600061112682610dbf565b611130818561110a565b9350611140818560208601610ddb565b61114981610e05565b840191505092915050565b6000611160838361111b565b905092915050565b6000602082019050919050565b6000611180826110de565b61118a81856110e9565b93508360208202850161119c856110fa565b8060005b858110156111d857848403895281516111b98582611154565b94506111c483611168565b925060208a019950506001810190506111a0565b50829750879550505050505092915050565b600060208201905081810360008301526112048184611175565b905092915050565b7f53697374656d6120646520766f746163696f6e3a204572726f7220657374612060008201527f70726f707565737461206e6f2065786973746500000000000000000000000000602082015250565b6000611268603383610dca565b91506112738261120c565b604082019050919050565b600060208201905081810360008301526112978161125b565b9050919050565b7f4e487b7100000000000000000000000000000000000000000000000000000000600052603260045260246000fd5b7f53697374656d6120646520766f746163696f6e3a20456c20766f74616e74652060008201527f796120766f746f00000000000000000000000000000000000000000000000000602082015250565b6000611329602783610dca565b9150611334826112cd565b604082019050919050565b600060208201905081810360008301526113588161131c565b9050919050565b7f4e6f207075656465732064656c6567617220747520766f746f00000000000000600082015250565b6000611395601983610dca565b91506113a08261135f565b602082019050919050565b600060208201905081810360008301526113c481611388565b9050919050565b7f53697374656d6120646520766f746163696f6e3a20457374612064697265636360008201527f696f6e206e6f20707565646520766f7461720000000000000000000000000000602082015250565b6000611427603283610dca565b9150611432826113cb565b604082019050919050565b600060208201905081810360008301526114568161141a565b9050919050565b7f53697374656d6120646520766f746163696f6e3a204572726f72206e6f20707560008201527f6564657320766f74617200000000000000000000000000000000000000000000602082015250565b60006114b9602a83610dca565b91506114c48261145d565b604082019050919050565b600060208201905081810360008301526114e8816114ac565b9050919050565b60006020820190506115046000830184610e4f565b92915050565b7f4f776e61626c653a206e6577206f776e657220697320746865207a65726f206160008201527f6464726573730000000000000000000000000000000000000000000000000000602082015250565b6000611566602683610dca565b91506115718261150a565b604082019050919050565b6000602082019050818103600083015261159581611559565b9050919050565b6000819050919050565b6000819050919050565b6115c16115bc8261159c565b6115a6565b82525050565b60006115d382846115b0565b60208201915081905092915050565b7f4f776e61626c653a2063616c6c6572206973206e6f7420746865206f776e6572600082015250565b6000611618602083610dca565b9150611623826115e2565b602082019050919050565b600060208201905081810360008301526116478161160b565b9050919050565b7f4e487b7100000000000000000000000000000000000000000000000000000000600052601160045260246000fd5b600061168882610d5c565b915061169383610d5c565b92508282019050808211156116ab576116aa61164e565b5b9291505056fea2646970667358221220587c462cc29cc18b64f951183dd09b42b2eeb1eca85f39e35e97b68e42c5355a64736f6c63430008130033",
  "linkReferences": {},
  "deployedLinkReferences": {}
}